:100000000C9461000C947E000C947E000C947E0095
:100010000C947E000C947E000C947E000C947E0068
:100020000C947E000C947E000C947E000C9465026F
:100030000C947E000C947E000C947E000C947E0048
:100040000C941B020C947E000C947E000C947E0099
:100050000C947E000C947E000C947E000C947E0028
:100060000C947E000C947E00000000002400270009
:100070002A0000000000250028002B0000000000DE
:1000800023002600290004040404040404040202DA
:100090000202020203030303030301020408102007
:1000A0004080010204081020010204081020000012
:1000B0000008000201000003040700000000000027
:1000C000000011241FBECFEFD8E0DEBFCDBF11E08E
:1000D000A0E0B1E0ECE9FAE002C005900D92AC3688
:1000E000B107D9F721E0ACE6B1E001C01D92AC3810
:1000F000B207E1F70E94D7020C944C050C94000063
:10010000833081F028F4813099F08230A9F008958D
:100110008730A9F08830C9F08430B1F48091800034
:100120008F7D03C0809180008F7780938000089539
:1001300084B58F7784BD089584B58F7DFBCF809182
:10014000B0008F778093B00008958091B0008F7DCC
:10015000F9CFCF93DF93282F30E0F901E255FF4F1D
:100160008491F901E656FF4FD491F901EA57FF4F08
:10017000C491CC23A1F081110E948000EC2FF0E00B
:10018000EE0FFF1FE458FF4FA591B491EC91ED23C2
:1001900081E090E009F480E0DF91CF91089580E064
:1001A00090E0FACF1F93CF93DF93282F30E0F9012F
:1001B000E255FF4F8491F901E656FF4FD491F901C2
:1001C000EA57FF4FC491CC23A9F0162F81110E944A
:1001D0008000EC2FF0E0EE0FFF1FEE58FF4FA591CF
:1001E000B4918FB7F894EC91111108C0D095DE232B
:1001F000DC938FBFDF91CF911F910895DE2BF8CF55
:10020000CF93DF9390E0FC01E656FF4F24918A578D
:100210009F4FFC0184918823C9F090E0880F991FBB
:10022000FC01E859FF4FA591B491FC01EE58FF4F36
:10023000C591D49161110DC09FB7F8948C91209510
:1002400082238C938881282328839FBFDF91CF91BD
:100250000895623051F49FB7F8943C91822F8095B5
:1002600083238C93E8812E2BEFCF8FB7F894EC91FA
:100270002E2B2C938FBFEACF3FB7F8948091830148
:1002800090918401A0918501B091860126B5A89B2B
:1002900005C02F3F19F00196A11DB11D3FBFBA2F18
:1002A000A92F982F8827BC01CD01620F711D811DD8
:1002B000911D42E0660F771F881F991F4A95D1F75D
:1002C00008958F929F92AF92BF92CF92DF92EF925A
:1002D000FF920E943C014B015C0184EFC82EDD249B
:1002E000D394E12CF12C0E943C01681979098A0908
:1002F0009B09683E734081059105A8F321E0C21A6D
:10030000D108E108F10888EE880E83E0981EA11C50
:10031000B11CC114D104E104F10429F7FF90EF905E
:10032000DF90CF90BF90AF909F908F900895809175
:1003300087018111FCCF0895CF93DF93EC010E94D8
:100340009701A1E0B1E08DE018968C93189786E1B3
:1003500019968C931997E88123EA2E2730E1239F81
:10036000C0011124282730E0F0E084E0F595E795FE
:100370008A95E1F7ED5AFE4F80811A968C931A9771
:10038000E881EF70F0E0ED5AFE4F80811B968C9370
:100390001B97922F88278964A90164E0559547959A
:1003A0006A95E1F78427952773E0220F331F7A952A
:1003B000E1F78227932780959095FC01C4E0F6959C
:1003C000E795CA95E1F7EF70FF27ED5AFE4F2081C0
:1003D0001C962C931C97FC01EF70FF27ED5AFE4FE3
:1003E00020811D962C931D97FC01EF2FFF27E2958E
:1003F000EF70ED5AFE4F20811E962C931E97E92F29
:10040000FF27EF70FF27ED5AFE4F80811F968C93D8
:1004100080E180938B0110928A01109289011092E1
:10042000880161E08AE00E94D20081E08093870128
:10043000DF91CF9108951F920F920FB60F92112462
:100440002F933F938F939F93AF93BF9380917F019F
:1004500090918001A0918101B091820130917E0143
:1004600023E0230F2D3758F50196A11DB11D2093D0
:100470007E0180937F0190938001A0938101B093CE
:1004800082018091830190918401A0918501B091B6
:1004900086010196A11DB11D809383019093840173
:1004A000A0938501B0938601BF91AF919F918F91E9
:1004B0003F912F910F900FBE0F901F90189526E837
:1004C000230F0296A11DB11DD2CF1F920F920FB61E
:1004D0000F9211241F932F933F934F935F936F932A
:1004E0007F938F939F93AF93BF93CF93DF93EF93BC
:1004F000FF9380918701882319F18091880191E011
:10050000980F9093880181111BC0C0918A011091AE
:10051000000180918B01C81768F160E08AE00E94B9
:10052000D20060E0812F0E94D2001092870180915A
:100530006E0190916F01019690936F0180936E010F
:1005400080918801883010F010928801FF91EF911E
:10055000DF91CF91BF91AF919F918F917F916F91DB
:100560005F914F913F912F911F910F900FBE0F9070
:100570001F901895EC2FF0E0EF5FFE4F6081209107
:100580008901D1E0D20FD093890181E090E001C0D0
:10059000880F2A95EAF76823812F0E94D200D6306F
:1005A000A8F210928901CF5FC0938A01C9CFCF937F
:1005B000DF93CDB7DEB72E970FB6F894DEBF0FBE30
:1005C000CDBF789484B5826084BD84B5816084BDDC
:1005D00085B5826085BD85B5816085BD80916E00E1
:1005E000816080936E001092810080918100826012
:1005F000809381008091810081608093810080914F
:1006000080008160809380008091B100846080933D
:10061000B1008091B00081608093B00080917A0039
:10062000846080937A0080917A00826080937A005F
:1006300080917A00816080937A0080917A0080684E
:1006400080937A001092C1008CE0809300018EE0CC
:10065000E5E4F1E0DE01119601900D928A95E1F753
:100660007E0123E0E20EF11C11E0F701619171912E
:100670007F0190E080E00E94BE049B01AC0160E03D
:1006800074E284E79BE40E9416049B01AC0160E0E5
:1006900070E080E89FE30E9416049B01AC016FE6C6
:1006A00072E183E898E30E9416040E9488044B01DB
:1006B0005C01F2E08F1A9108A108B1082DEF8216B3
:1006C0002FEF9206A104B10408F4ACC01F5F1730ED
:1006D00061F6623071058105910550F16115710572
:1006E000E1E08E07910520F51092800028E020932C
:1006F000810020918100122B10938100709389005A
:100700006093880080916F00826080936F0061E049
:10071000809100010E94000160E08BE00E940001D6
:1007200061E08AE00E94000160E08AE00E94D2005D
:1007300062E086E00E94000162E087E00E94000122
:1007400062E088E00E94000162E089E00E9400010E
:1007500080E0A82E80E0B82E86E00E94A9006C01FF
:1007600090937D0180937C0187E00E94A9008C0119
:1007700090937B0180937A0188E00E94A9007C011C
:10078000909379018093780189E00E94A900CD2897
:1007900011F52091760130917701232BE1F483E666
:1007A00091E00E949C010E949701109277011092A3
:1007B00076011092750110927401109273011092DB
:1007C00072011092710110927001A114B10421F212
:1007D0000E940000C1CF012B79F420917401309167
:1007E0007501232B49F485E691E00E949C010E944B
:1007F00097010E946101D9CFEF2849F4209172013D
:1008000030917301232B19F487E691E0EECF892B09
:1008100061F68091700190917101892B31F689E622
:1008200091E0E3CF163009F05FCF82CF0E942A0417
:100830000C9412050E940B0558F00E94040540F02C
:1008400029F45F3F29F00C94FB0451110C944605E8
:100850000C9401050E94230568F39923B1F35523F5
:1008600091F3951B550BBB27AA27621773078407C3
:1008700038F09F5F5F4F220F331F441FAA1FA9F359
:1008800035D00E2E3AF0E0E832D091505040E69547
:10089000001CCAF72BD0FE2F29D0660F771F881FA8
:1008A000BB1F261737074807AB07B0E809F0BB0B9B
:1008B000802DBF01FF2793585F4F3AF09E3F5105AF
:1008C00078F00C94FB040C9446055F3FE4F3983EEB
:1008D000D4F3869577956795B795F7959F5FC9F798
:1008E000880F911D9695879597F90895E1E0660F19
:1008F000771F881FBB1F621773078407BA0720F092
:10090000621B730B840BBA0BEE1F88F7E0950895FA
:100910000E948F046894B1110C94460508950E94BA
:100920002B0588F09F5798F0B92F9927B751B0F051
:10093000E1F0660F771F881F991F1AF0BA95C9F763
:1009400014C0B13091F00E944505B1E008950C94B7
:100950004505672F782F8827B85F39F0B93FCCF36A
:10096000869577956795B395D9F73EF490958095E0
:10097000709561957F4F8F4F9F4F0895E89409C000
:1009800097FB3EF490958095709561957F4F8F4FC2
:100990009F4F9923A9F0F92F96E9BB279395F695D8
:1009A000879577956795B795F111F8CFFAF4BB0F56
:1009B00011F460FF1BC06F5F7F4F8F4F9F4F16C0BA
:1009C000882311F096E911C0772321F09EE8872F44
:1009D000762F05C0662371F096E8862F70E060E000
:1009E0002AF09A95660F771F881FDAF7880F969579
:1009F000879597F9089597F99F6780E870E060E020
:100A000008959FEF80EC089500240A9416161706A7
:100A100018060906089500240A94121613061406EF
:100A200005060895092E0394000C11F4882352F052
:100A3000BB0F40F4BF2B11F460FF04C06F5F7F4F0A
:100A40008F4F9F4F089557FD9058440F551F59F0F1
:100A50005F3F71F04795880F97FB991F61F09F3FAB
:100A600079F087950895121613061406551FF2CFD4
:100A70004695F1DF08C0161617061806991FF1CF24
:100A800086957105610508940895E894BB2766274B
:0C0A90007727CB0197F90895F894FFCF69
:100A9C000C2A2A2A2A2A2A382C00000000000000DE
:100AAC00000000000000000000000000000000003A
:100ABC00000000000000000000000000000000002A
:100ACC00000000000000000000000000000000001A
:100ADC0000000000000000010008004000000100C0
:100AEC0004050D0D0E131516191A1C232526292A7B
:0C0AFC002C3234610062006300640000D2
:00000001FF
