:020000040000FA
:100000000C9461000C947E000C947E000C947E0095
:100010000C947E000C947E000C947E000C947E0068
:100020000C947E000C947E000C947E000C94EA01EB
:100030000C947E000C947E000C947E000C947E0048
:100040000C94A0010C947E000C947E000C947E0015
:100050000C947E000C947E000C947E000C947E0028
:100060000C947E000C947E0000000000230026000B
:10007000290000000000240027002A0000000000E2
:10008000250028002B0004040404040404040202D4
:100090000202020203030303030301020408102007
:1000A0004080010204081020010204081020000012
:1000B0000008000201000003040700000000000027
:1000C000000011241FBECFEFD8E0DEBFCDBF11E08E
:1000D000A0E0B1E0E2E9F1E102C005900D92A833A1
:1000E000B107D9F721E0A8E3B1E001C01D92A13723
:1000F000B207E1F70E9411030C94C7080C940000AA
:10010000833081F028F4813099F08230A9F008958D
:100110008730A9F08830C9F08430B1F48091800034
:100120008F7D03C0809180008F7780938000089539
:1001300084B58F7784BD089584B58F7DFBCF809182
:10014000B0008F778093B00008958091B0008F7DCC
:10015000F9CF1F93CF93DF93282F30E0F901E255B9
:10016000FF4F8491F901E656FF4FD491F901EA5708
:10017000FF4FC491CC23A9F0162F81110E9480005B
:10018000EC2FF0E0EE0FFF1FE458FF4FA591B49164
:100190008FB7F894EC91111108C0D095DE23DC9351
:1001A0008FBFDF91CF911F910895DE2BF8CFCF93B2
:1001B000DF9390E0FC01E656FF4F24918A579F4F52
:1001C000FC0184918823D1F090E0880F991FFC01F5
:1001D000EE58FF4FA591B491FC01E458FF4FC59133
:1001E000D49161110EC09FB7F8948C91E22FE095E5
:1001F0008E238C932881E223E8839FBFDF91CF91E8
:1002000008958FB7F894EC91E22BEC938FBFF6CF63
:100210003FB7F89480916D0190916E01A0916F01AC
:10022000B091700126B5A89B05C02F3F19F001962B
:10023000A11DB11D3FBFBA2FA92F982F8827BC0140
:10024000CD01620F711D811D911D42E0660F771F68
:10025000881F991F4A95D1F708958F929F92AF9268
:10026000BF92CF92DF92EF92FF924B015C010E940E
:1002700008016B017C010E9408016C197D098E093F
:100280009F09683E734081059105A8F321E0821A19
:100290009108A108B10888EEC80E83E0D81EE11CC1
:1002A000F11C81149104A104B10429F7FF90EF908F
:1002B000DF90CF90BF90AF909F908F9008959C015A
:1002C000809138018823D1F190915A019350FB011C
:1002D0008081981708F49083C901FB01408150E0A8
:1002E0006BE371E00E94BE081092380190915A01B0
:1002F000EAE3F1E02FEF3FEF9150E0F081918227A8
:1003000060E1869FA00111248427482F50E0232F0D
:100310003327382BBA01A4E075956795AA95E1F7C4
:1003200026273727B3E0440F551FBA95E1F7242756
:100330003527E2CF81E0283B304F09F080E0089577
:100340001F920F920FB60F9211242F933F938F930A
:100350009F93AF93BF938091690190916A01A0919F
:100360006B01B0916C013091680123E0230F2D37B0
:1003700058F50196A11DB11D209368018093690174
:1003800090936A01A0936B01B0936C0180916D0111
:1003900090916E01A0916F01B09170010196A11D25
:1003A000B11D80936D0190936E01A0936F01B09386
:1003B0007001BF91AF919F918F913F912F910F90BD
:1003C0000FBE0F901F90189526E8230F0296A11DCF
:1003D000B11DD2CF1F920F920FB60F9211241F930F
:1003E0002F933F934F935F936F937F938F939F933D
:1003F000AF93BF93CF93DF93EF93FF931091670178
:10040000112339F180916501811123C020910001F0
:1004100030E0F901E255FF4F8491F901E656FF4FB4
:10042000D491F901EA57FF4FC491CC2379F081119F
:100430000E948000EC2FF0E0EE0FFF1FE859FF4F05
:10044000A591B491EC91DE2381E009F480E08093E2
:100450006401809165018823D9F08091630191E066
:10046000980F90936301811113C060E08AE00E94AD
:10047000A90060E08CE00E94A900109265018091C3
:1004800061019091620101969093620180936101F4
:1004900080916301883010F010926301112309F4F8
:1004A0007AC080916501811176C090916401992391
:1004B00029F0809160018F5F8093600180915E01DF
:1004C00020915F01921709F47AC02BE0803508F083
:1004D0002DE1820F80935E0190935F0120915E0178
:1004E000203A08F458C080915C0190915D01969586
:1004F000879590935D0180935C0130916001353068
:1005000028F0986090935D0180935C01205A2093BD
:100510005E011092600180916601882309F470C029
:1005200080915B018F5F80935B018C30A0F14091E3
:100530005C0150915D01942F9F73EFE0F1E0DF01CA
:1005400080E02D91921721F08F5F8031D1F780E00C
:1005500090E1899F9001112486E0569547958A95F0
:10056000E1F780E09191491721F08F5F8031D1F759
:1005700080E0822B90915A01911125C080935901FE
:100580009CEF980F9B31F8F0109266018091580112
:100590008F5F80935801FF91EF91DF91CF91BF91D1
:1005A000AF919F918F917F916F915F914F913F910B
:1005B0002F911F910F900FBE0F901F9018958C5E7A
:1005C00080935E018BCFE0915A0191E09E0F909352
:1005D0005A01F0E0E65CFE4F808390915A018091D1
:1005E0005901981750F010926601809139018F5F80
:1005F0008093390181E08093380110925B01CBCF69
:1006000080915C0190915D0188339B4021F681E0EF
:100610008093660110925B0110925A01109238018A
:10062000BACFCF93DF93CDB7DEB76F970FB6F894FD
:10063000DEBF0FBECDBF789484B5826084BD84B523
:10064000816084BD85B5826085BD85B5816085BDCD
:1006500080916E00816080936E0010928100809185
:10066000810082608093810080918100816080930D
:100670008100809180008160809380008091B10032
:1006800084608093B1008091B00081608093B0005D
:1006900080917A00846080937A0080917A008260F1
:1006A00080937A0080917A00816080937A008091B3
:1006B0007A00806880937A001092C1008CE0809369
:1006C00000018EE0E1E0F1E0DE01119601900D9273
:1006D0008A95E1F77E0123E0E20EF11C11E0F701BB
:1006E000619171917F0190E080E00E9430089B0150
:1006F000AC0160E074E284E79BE40E9488079B0100
:10070000AC0160E070E080E89FE30E9488079B01F5
:10071000AC016FE672E183E898E30E9488070E94CB
:10072000FA074B015C01F2E08F1A9108A108B108A9
:100730002DEF82162FEF9206A104B10408F4E4C352
:100740001F5F173061F6623071058105910550F128
:1007500061157105E1E08E07910520F5109280008A
:1007600028E02093810020918100122B10938100BA
:10077000709389006093880080916F0082608093FD
:100780006F0061E08CE00E94D70060E08091000182
:100790000E94D70061E08AE00E94D70060E08AE012
:1007A0000E94A90080916701811105C081E08093BA
:1007B00067011092660191E3E92E91E0F92E2BE298
:1007C000622E21E0722E3FE1432E31E0532E45E2AE
:1007D000242E41E0342E6101520143018701F801CA
:1007E00080810E5F1F4F61E00E94D700F40180817D
:1007F000F2E08F0E911C61E00E94D700F50180812C
:10080000F2E0AF0EB11C61E00E94D700F6018081DA
:10081000F2E0CF0ED11C61E00E94D70087E391E0A7
:1008200080179107E1F6F7018081F2E0EF0EF11CED
:1008300060E00E94A900F3018081F2E06F0E711C5C
:1008400060E00E94A900F2018081F2E04F0E511C8D
:1008500060E00E94A900F1018081F2E02F0E311CBE
:1008600060E00E94A900E016F106E9F61EE180E0D2
:10087000E82E80E0F82E1F8F61E083E00E94A9003F
:10088000BE01615E7F4FCE0101960E945F01882309
:1008900051F08F8D882339F08981823609F4FBC0AD
:1008A000843609F43FC161E084E00E94A90061E060
:1008B00087E00E94A90061E08AE00E94A90060ED43
:1008C00077E080E090E00E942D0160E083E00E94EC
:1008D000A90060E087E00E94A90061E082E00E9438
:1008E000A90061E088E00E94A90060ED77E080E067
:1008F00090E00E942D0160E088E00E94A90061E084
:1009000089E00E94A900BE01615E7F4FCE01019681
:100910000E945F01882351F08F8D882339F08981EF
:10092000813609F43AC1823609F47AC160E082E086
:100930000E94A90060E082E00E94A90061E081E0DD
:100940000E94A90060ED77E080E090E00E942D0118
:1009500060E089E00E94A90060E08AE00E94A900AE
:1009600061E088E00E94A90061E08BE00E94A9009C
:1009700060ED77E080E090E00E942D0161E08DE085
:100980000E94A900BE01615E7F4FCE0101960E94C8
:100990005F01882351F08F8D882339F0898181365A
:1009A00009F499C1833609F4E9C160E088E00E9446
:1009B000A90060E08BE00E94A90061E087E00E944E
:1009C000A90060ED77E080E090E00E942D0160E0FA
:1009D0008DE00E94A90060E084E00E94A90061E02F
:1009E0008BE00E94A90061E085E00E94A90060ED13
:1009F00077E080E090E00E942D0161E086E00E94B7
:100A0000A900BE01615E7F4FCE0101960E945F0189
:100A1000882351F08F8D882339F08981833609F43A
:100A2000E9C1843609F435C260E08BE00E94A90078
:100A300060E085E00E94A90061E08AE00E94A900D0
:100A400060ED77E080E090E00E942D0160E081E0C1
:100A50000E94A90060E086E00E94A90061E082E0B7
:100A60000E94A90061E085E00E94A90060ED77E0A6
:100A700080E090E00E942D0160E085E00E94A900E6
:100A800060E082E00E94A900E114F10409F4F3CED1
:100A90000E940000F0CE60E083E00E94A90061E0C7
:100AA00082E00E94A90061E085E00E94A90060ED5B
:100AB00077E080E090E00E942D0160E082E00E94FB
:100AC000A90060E085E00E94A90061E086E00E9444
:100AD000A90061E081E00E94A90060ED77E080E07C
:100AE00090E00E942D0160E086E00E94A90061E094
:100AF00085E00E94A90060E081E00E94A90061E019
:100B000082E00E94A90060ED77E080E090E00E9422
:100B10002D0160E085E00E94A90061E082E00E9472
:100B2000A900C1CE61E084E00E94A90060E083E0FA
:100B30000E94A90061E082E00E94A90060E08AE0D2
:100B40000E94A90061E08BE00E94A90060ED77E0BF
:100B500080E090E00E942D0160E082E00E94A90008
:100B600060E08BE00E94A90060E08AE00E94A9009A
:100B700061E08DE00E94A90061E081E00E94A9008F
:100B800060ED77E080E090E00E942D0160E08DE074
:100B90000E94A90060E081E0BECF60E089E00E9491
:100BA000A90061E088E00E94A90061E082E00E9463
:100BB000A90060ED77E080E090E00E942D0161E007
:100BC00087E00E94A90060E088E00E94A90060E040
:100BD00082E00E94A90061E083E00E94A90060ED2C
:100BE00077E080E090E00E942D0160E083E00E94C9
:100BF000A90061E082E00E94A90061E087E00E9414
:100C0000A90060ED77E080E090E00E942D0160E0B7
:100C100087E00E94A90061E088E00E94A90086CEDA
:100C200060E082E00E94A90061E081E00E94A900EA
:100C300060E089E00E94A90061E088E00E94A900CC
:100C400060ED77E080E090E00E942D0160E085E0BB
:100C50000E94A90061E085E00E94A90060E088E0B0
:100C60000E94A90061E087E00E94A90060E084E0A2
:100C70000E94A90060ED77E080E090E00E942D01E5
:100C800060E085E00E94A90061E086E00E94A90082
:100C900060ED77E080E090E00E942D0160E086E06A
:100CA0000E94A90061E085E00E94A90061E088E05F
:100CB0000E94A90060E087E00E94A90060ED77E053
:100CC00080E090E00E942D0160E085E00E94A90094
:100CD00061E084E0A2CF60E088E00E94A90061E0CA
:100CE00087E00E94A90060E08DE00E94A90061E019
:100CF0008BE00E94A90061E082E00E94A90060ED03
:100D000077E080E090E00E942D0160E08BE00E949F
:100D1000A90060E082E00E94A90060E081E00E94FA
:100D2000A90061E08AE00E94A90061E083E00E94DE
:100D3000A90060ED77E080E090E00E942D0160E086
:100D400083E00E94A90060E08AE00E94A90061E0BF
:100D500082E00E94A90060ED77E080E090E00E94D0
:100D60002D0160E082E00E94A90061E081E00E9424
:100D7000A90061E08AE00E94A90017CE60E08DE042
:100D80000E94A90061E088E00E94A90061E08BE078
:100D90000E94A90060ED77E080E090E00E942D01C4
:100DA00060E08BE00E94A90060E088E00E94A9005A
:100DB00061E08AE00E94A90061E089E00E94A90048
:100DC00060ED77E080E090E00E942D0161E08BE033
:100DD0000E94A90060E089E00E94A90061E088E02B
:100DE0000E94A9006CEB72E080E090E00E942D016F
:100DF00060E0C0CF60E08BE00E94A90061E08AE083
:100E00000E94A90060E086E00E94A90061E085E000
:100E10000E94A90060E087E00E94A90061E088E0EC
:100E20000E94A90060ED77E080E090E00E942D0133
:100E300060E085E00E94A90060E088E00E94A900CF
:100E400061E084E00E94A90061E089E00E94A900BD
:100E500060ED77E080E090E00E942D0161E085E0A8
:100E60000E94A90060E085E00E94A90060ED77E0A3
:100E700080E090E00E942D0160E088E00E94A900DF
:100E800060E089E00E94A90061E088E00E94A9007A
:100E9000CBCD60E086E00E94A90061E085E00E9481
:100EA000A90061E08BE00E94A90060ED77E080E09E
:100EB00090E00E942D0160E085E00E94A90060E0C2
:100EC0008BE00E94A90061E084E00E94A90061E03B
:100ED0008DE00E94A90060ED77E080E090E00E9444
:100EE0002D0160E08DE00E94A90060E084E00E9496
:100EF000A90061E085E00E94A90060ED77E080E054
:100F000090E00E942D0190CD163009F44BCC26CCF8
:100F10000E949C070C9484080E947D0858F00E944F
:100F2000760840F029F45F3F29F00C946D085111C8
:100F30000C94B8080C9473080E94950868F39923E0
:100F4000B1F3552391F3951B550BBB27AA276217C5
:100F50007307840738F09F5F5F4F220F331F441FD2
:100F6000AA1FA9F335D00E2E3AF0E0E832D0915006
:100F70005040E695001CCAF72BD0FE2F29D0660FF3
:100F8000771F881FBB1F261737074807AB07B0E836
:100F900009F0BB0B802DBF01FF2793585F4F3AF03C
:100FA0009E3F510578F00C946D080C94B8085F3F93
:100FB000E4F3983ED4F3869577956795B795F795C2
:100FC0009F5FC9F7880F911D9695879597F90895AA
:100FD000E1E0660F771F881FBB1F62177307840746
:100FE000BA0720F0621B730B840BBA0BEE1F88F755
:100FF000E09508950E9401086894B1110C94B80816
:1010000008950E949D0888F09F5798F0B92F99275E
:10101000B751B0F0E1F0660F771F881F991F1AF0E3
:10102000BA95C9F714C0B13091F00E94B708B1E089
:1010300008950C94B708672F782F8827B85F39F088
:10104000B93FCCF3869577956795B395D9F73EF47C
:1010500090958095709561957F4F8F4F9F4F089524
:10106000E89409C097FB3EF4909580957095619542
:101070007F4F8F4F9F4F9923A9F0F92F96E9BB27F8
:101080009395F695879577956795B795F111F8CF74
:10109000FAF4BB0F11F460FF1BC06F5F7F4F8F4FDF
:1010A0009F4F16C0882311F096E911C0772321F0D5
:1010B0009EE8872F762F05C0662371F096E8862F6D
:1010C00070E060E02AF09A95660F771F881FDAF7C4
:1010D000880F9695879597F9089597F99F6780E807
:1010E00070E060E008959FEF80EC089500240A947A
:1010F0001616170618060906089500240A941216F3
:101100001306140605060895092E0394000C11F425
:10111000882352F0BB0F40F4BF2B11F460FF04C0D2
:101120006F5F7F4F8F4F9F4F089557FD9058440F2B
:10113000551F59F05F3F71F04795880F97FB991F36
:1011400061F09F3F79F087950895121613061406F3
:10115000551FF2CF4695F1DF08C016161706180680
:10116000991FF1CF86957105610508940895E8945B
:10117000BB2766277727CB0197F90895FB01DC0190
:1011800002C001900D9241505040D8F70895F89454
:10119000FFCF0B0000010008004000000100040523
:1011A0000D0D0E131516191A1C232526292A2C326B
:1011B000340700080009000A000B000D00040005B8
:0A11C0000006000100020003000019
:107E0000112484B714BE81FFF0D085E080938100F7
:107E100082E08093C00088E18093C10086E0809377
:107E2000C20080E18093C4008EE0C9D0259A86E02C
:107E300020E33CEF91E0309385002093840096BBD3
:107E4000B09BFECF1D9AA8958150A9F7CC24DD24C4
:107E500088248394B5E0AB2EA1E19A2EF3E0BF2EE7
:107E6000A2D0813461F49FD0082FAFD0023811F036
:107E7000013811F484E001C083E08DD089C08234E0
:107E800011F484E103C0853419F485E0A6D080C0E4
:107E9000853579F488D0E82EFF2485D0082F10E0AE
:107EA000102F00270E291F29000F111F8ED06801E7
:107EB0006FC0863521F484E090D080E0DECF843638
:107EC00009F040C070D06FD0082F6DD080E0C81688
:107ED00080E7D80618F4F601B7BEE895C0E0D1E017
:107EE00062D089930C17E1F7F0E0CF16F0E7DF06D8
:107EF00018F0F601B7BEE89568D007B600FCFDCFD4
:107F0000A601A0E0B1E02C9130E011968C91119780
:107F100090E0982F8827822B932B1296FA010C0160
:107F200087BEE89511244E5F5F4FF1E0A038BF0790
:107F300051F7F601A7BEE89507B600FCFDCF97BE46
:107F4000E89526C08437B1F42ED02DD0F82E2BD052
:107F50003CD0F601EF2C8F010F5F1F4F84911BD097
:107F6000EA94F801C1F70894C11CD11CFA94CF0C13
:107F7000D11C0EC0853739F428D08EE10CD085E9AC
:107F80000AD08FE07ACF813511F488E018D01DD067
:107F900080E101D065CF982F8091C00085FFFCCF94
:107FA0009093C60008958091C00087FFFCCF809118
:107FB000C00084FD01C0A8958091C6000895E0E648
:107FC000F0E098E1908380830895EDDF803219F02E
:107FD00088E0F5DFFFCF84E1DECF1F93182FE3DFCA
:107FE0001150E9F7F2DF1F91089580E0E8DFEE27F6
:047FF000FF270994CA
:027FFE00040479
:00000001FF
